{
  "contractName": "Bank",
  "abi": [
    {
      "constant": true,
      "inputs": [
        {
          "internalType": "address",
          "name": "",
          "type": "address"
        }
      ],
      "name": "deposits",
      "outputs": [
        {
          "internalType": "uint256",
          "name": "",
          "type": "uint256"
        }
      ],
      "payable": false,
      "stateMutability": "view",
      "type": "function"
    },
    {
      "constant": false,
      "inputs": [
        {
          "internalType": "address",
          "name": "payee",
          "type": "address"
        }
      ],
      "name": "deposit",
      "outputs": [],
      "payable": true,
      "stateMutability": "payable",
      "type": "function"
    },
    {
      "constant": false,
      "inputs": [
        {
          "internalType": "address payable",
          "name": "payee",
          "type": "address"
        }
      ],
      "name": "withdraw",
      "outputs": [],
      "payable": false,
      "stateMutability": "nonpayable",
      "type": "function"
    },
    {
      "constant": false,
      "inputs": [
        {
          "internalType": "address",
          "name": "payee",
          "type": "address"
        }
      ],
      "name": "getBalance",
      "outputs": [
        {
          "internalType": "uint256",
          "name": "",
          "type": "uint256"
        }
      ],
      "payable": false,
      "stateMutability": "nonpayable",
      "type": "function"
    }
  ],
  "bytecode": "0x608060405234801561001057600080fd5b50610396806100206000396000f3fe60806040526004361061003f5760003560e01c806351cff8d914610044578063f340fa0114610095578063f8b2cb4f146100d9578063fc7e286d1461013e575b600080fd5b34801561005057600080fd5b506100936004803603602081101561006757600080fd5b81019080803573ffffffffffffffffffffffffffffffffffffffff1690602001909291905050506101a3565b005b6100d7600480360360208110156100ab57600080fd5b81019080803573ffffffffffffffffffffffffffffffffffffffff169060200190929190505050610275565b005b3480156100e557600080fd5b50610128600480360360208110156100fc57600080fd5b81019080803573ffffffffffffffffffffffffffffffffffffffff169060200190929190505050610301565b6040518082815260200191505060405180910390f35b34801561014a57600080fd5b5061018d6004803603602081101561016157600080fd5b81019080803573ffffffffffffffffffffffffffffffffffffffff169060200190929190505050610349565b6040518082815260200191505060405180910390f35b60008060008373ffffffffffffffffffffffffffffffffffffffff1673ffffffffffffffffffffffffffffffffffffffff16815260200190815260200160002054905060008060008473ffffffffffffffffffffffffffffffffffffffff1673ffffffffffffffffffffffffffffffffffffffff168152602001908152602001600020819055508173ffffffffffffffffffffffffffffffffffffffff166108fc829081150290604051600060405180830381858888f19350505050158015610270573d6000803e3d6000fd5b505050565b6000349050806000808473ffffffffffffffffffffffffffffffffffffffff1673ffffffffffffffffffffffffffffffffffffffff16815260200190815260200160002054016000808473ffffffffffffffffffffffffffffffffffffffff1673ffffffffffffffffffffffffffffffffffffffff168152602001908152602001600020819055505050565b60008060008373ffffffffffffffffffffffffffffffffffffffff1673ffffffffffffffffffffffffffffffffffffffff168152602001908152602001600020549050919050565b6000602052806000526040600020600091509050548156fea265627a7a72315820d4ccccfb9b788ce86bb2212900427532472dfd18a06382fd706ee89f45be7dad64736f6c63430005100032",
  "source": "pragma solidity ^0.5.16;\n\ncontract Bank {\n    mapping(address => uint256) public deposits;\n\n    function deposit(address payee) public payable {\n        uint256 amount = msg.value;\n        deposits[payee] = deposits[payee] + amount;\n    }\n\n    function withdraw(address payable payee) public {\n        uint256 payment = deposits[payee];\n        deposits[payee] = 0;\n        payee.transfer(payment);\n    }\n\n    function getBalance(address payee) public returns (uint256) {\n        return deposits[payee];\n    }\n}\n",
  "sourcePath": "/Users/rishubkumar/Desktop/apps/bank/src/contracts/Bank.sol",
  "compiler": {
    "name": "solc",
    "version": "0.5.16+commit.9c3226ce.Emscripten.clang"
  },
  "schemaVersion": "3.1.0",
  "updatedAt": "2020-04-23T22:57:23.241Z",
  "networkType": "ethereum",
  "devdoc": {
    "methods": {}
  },
  "userdoc": {
    "methods": {}
  }
}